{
  "address": "0xa590239311aE308A6F8Bc7e75c18F07DD63C8C03",
  "abi": [
    {
      "inputs": [],
      "stateMutability": "nonpayable",
      "type": "constructor"
    },
    {
      "inputs": [
        {
          "internalType": "int256",
          "name": "v_",
          "type": "int256"
        }
      ],
      "name": "setV",
      "outputs": [],
      "stateMutability": "nonpayable",
      "type": "function"
    },
    {
      "inputs": [],
      "name": "test1",
      "outputs": [
        {
          "internalType": "bytes4",
          "name": "",
          "type": "bytes4"
        }
      ],
      "stateMutability": "pure",
      "type": "function"
    },
    {
      "inputs": [],
      "name": "v",
      "outputs": [
        {
          "internalType": "int256",
          "name": "",
          "type": "int256"
        }
      ],
      "stateMutability": "view",
      "type": "function"
    }
  ],
  "transactionHash": "0x399c2dbb683bb5ac6d35cecc08aeedb48fb5b5e25c857ed10ea403de7c8008da",
  "args": [],
  "numDeployments": 2,
  "solcInputHash": "7f2508ed71e2b5274b4357045fd8ad87",
  "bytecode": "0x608060405234801561001057600080fd5b506101d2806100206000396000f3fe608060405234801561001057600080fd5b50600436106100415760003560e01c806335169adf146100465780636b59084d146100625780637c2efcba14610080575b600080fd5b610060600480360381019061005b91906100d2565b61009e565b005b61006a6100a8565b6040516100779190610119565b60405180910390f35b6100886100b7565b6040516100959190610134565b60405180910390f35b8060008190555050565b6000631626ba7e60e01b905090565b60005481565b6000813590506100cc81610185565b92915050565b6000602082840312156100e457600080fd5b60006100f2848285016100bd565b91505092915050565b6101048161014f565b82525050565b6101138161017b565b82525050565b600060208201905061012e60008301846100fb565b92915050565b6000602082019050610149600083018461010a565b92915050565b60007fffffffff0000000000000000000000000000000000000000000000000000000082169050919050565b6000819050919050565b61018e8161017b565b811461019957600080fd5b5056fea2646970667358221220126fa4f2c7b6ae0d85b54663e970ef71e5261a51121d58d4c1f5518a556ba7f464736f6c63430008040033",
  "devdoc": {
    "kind": "dev",
    "methods": {},
    "version": 1
  },
  "userdoc": {
    "kind": "user",
    "methods": {},
    "version": 1
  },
  "storageLayout": {
    "storage": [
      {
        "astId": 18,
        "contract": "contracts/ERC1271Test.sol:ERC1271Test",
        "label": "v",
        "offset": 0,
        "slot": "0",
        "type": "t_int256"
      }
    ],
    "types": {
      "t_int256": {
        "encoding": "inplace",
        "label": "int256",
        "numberOfBytes": "32"
      }
    }
  }
}